:10000000020003787FE4F6D8FD90E0007F537E1E67
:10001000E4F0A3DFFCDEFA75810702005802028AD1
:10002000E493A3F8E493A34003F68001F208DFF41D
:100030008029E493A3F85407240CC8C333C4540F95
:100040004420C8834004F456800146F6DFE4800B68
:10005000010204081020408090036FE47E01936049
:10006000BCA3FF543F30E509541FFEE493A3600195
:100070000ECF54C025E060A840B8E493A3FAE493FF
:10008000A3F8E493A3C8C582C8CAC583CAF0A3C8AD
:10009000C582C8CAC583CADFE9DEE780BEAFC77EB6
:1000A00000E5C754CF4430F5C790FFFFE49390E0DC
:1000B00000F090FFFEE49390E001F090FFFDE493E8
:1000C00090E002F090FFFCE49390E003F090FFFBDF
:1000D000E49390E004F090FFFAE49390E005F09050
:1000E000FFF9E49390E006F090FFF8E49390E007C6
:1000F000F0E4FD0DEDB408FB8FC77F002290E00017
:10010000E090DF43F090E001E090DF44F090E00207
:10011000E090DF45F090E003E090DF46F090E004EF
:10012000E090DF47F090E005E090DF48F090E006D7
:10013000E090DF49F090E007E090DF4AF012044ED3
:1001400090DF4BEEF0A3EFF012045990DF4DEEF08C
:10015000A3EFF022E4FDFCE4FEFF0FBF00010EBEA2
:1001600001F8BFF4F50DBD00010CBC03EABDE8E7E2
:1001700012047212047812047E1204DBE4FCFDE423
:10018000FEFF0FBF00010EBE01F8BFF4F50DBD006C
:10019000010CBC03EABDE8E712048412048A1204CD
:1001A000901204EA80AE90E019E0F46033E090E051
:1001B0001DF090E019E0240DF582E434E0F583E0D1
:1001C00090E019F0E0B4FF0690E00874FFF090E0D2
:1001D0001DE0FF240DF582E434E0F58374FFF02286
:1001E0007FFF22EB9FF5F0EA9E42F0E99D42F0E8A6
:1001F0009C45F022EF4E6012EF60010EEDBB010B4B
:1002000089828A83F0A3DFFCDEFA2289F05007F7A7
:1002100009DFFCA9F022BBFEFCF309DFFCA9F022F8
:1002200012046490E01EEFF0E4FFFEFDFC90E0138A
:10023000E0F8A3E0F9A3E0FAA3E0FBC31201E37F37
:100240000060027F0190E01FEFF090E01EE0FF12DF
:10025000046CA3E0FF2212044EEFC007120459AC55
:1002600006AD07D00712043E12045990E017EEF0D5
:10027000A3EFF012045990E010EEF0A3EFF0120497
:100280004E90E00EEEF0A3EFF02212046490E01A1C
:10029000EFF01203FD1203BE120417EF70FA1204FE
:1002A000ED120417EF70FA90E01AE0FF12046C12DE
:1002B00004F012049C1203457EFF7FFF2290E00BA6
:1002C000E0602A120220EF7024E5BE54FC4402F5DF
:1002D000BE1204F81204F075870112046490E01D48
:1002E000EFF0E490E00BF012046C1204F722120419
:1002F000B91204B51204B11204CF1204CC1204C90D
:100300001204AD1204A91204A51204A11204C6120B
:1003100004C31204C01204BD7F0022AE071203E121
:10032000EF701F90E019E0B4FF02800D90E008E04C
:10033000240DF582E434E0F583EEF090E008F07FE0
:1003400001227F002212046490E01CEFF01201A64B
:1003500090E01BEFF0A3E0FF12046C90E01BE0FFC5
:1003600090E012F0F4600312042B1202BD80D6421A
:10037000E017FEFE42E010000142E00E002241E0E4
:1003800012FF42E009000141E00C2241E00B004471
:10039000E0130000000000AE0712046490E01BEFC1
:1003A000F0AF0612031BEF7F0560027F0090E01C98
:1003B000EFF090E01BE0FF12046CA3E0FF2253BEBD
:1003C000FC53BEFBE5BE30E6FB7418547F54BFFF00
:1003D000F5C61202EE12009D1200FD1202567F00B9
:1003E00022740D2FF582E434E0F583E0B4FF07902A
:1003F000E008E0B507047F0180027F00227E007FD5
:10040000017DFF7B017AE0790D1201F490E019740F
:10041000FFF090E008F0221201A6EFB4FF07E4908D
:10042000E01BF0FF2212042B7F012290E01DEFF071
:10043000700302015490E01DE0FF1204962290E048
:1004400009ECF0A3EDF090E00CEFF00204F690E080
:1004500004E0FEA3E0FDEDFF2290E006E0FEA3E055
:10046000FDEDFF22A2AFE433FFC2AF22EF24FF92E3
:10047000AF221204C90204BD1204D50204D2120430
:10048000CC0204C31204E10204DE1204CF0204C64B
:100490001204E70204E490E01EEFF022E4FF0203FE
:1004A0009743FE102243FE012243FE022243FD0237
:1004B0002243FF012243FE042243FE0822D294225B
:1004C000D29022D29122D28122D2A022D29222D2C2
:1004D0009322C28122C29322C290220204D8C294E3
:1004E00022C2A022C29122C292220204C07F002214
:0904F000D2AF22C2AF2222222267
:00000001FF
